:100000000C943C020C9459020C9459020C94590221
:100010000C9459020C9459020C9459020C945902F4
:100020000C9459020C9459020C9444200C941821FD
:100030000C94011B0C9459020C9459020C94590213
:100040000C9459020C9459020C9459020C945902C4
:100050000C9459020C94881B0C9459020C9459026C
:100060000C9459020C9459020C9459020C945902A4
:100070000C9459020C9459020C9459020C94590294
:100080000C9459020C9459020C9459020C94590284
:100090000C9459020C9459020C9459020C94590274
:1000A0000C9459020C9459020C9459026572676FB2
:1000B000646F785F657A2F626173652F6173747303
:1000C0006D746C204020302E362E3434372D342D74
:1000D0006761316232383700290035002B00E100BA
:1000E000E10000001E00140004001D00E0004D00AF
:1000F0001F001A0016001B00E3004C00200008003F
:1001000007000600E2002A0021001500090019007E
:1001100001514A00220017000A00050000003900C2
:1001200000002E00000047000000000000002D002D
:10013000000031000000650023001C000B001100CE
:1001400000004900240018000D00100001514B0070
:1001500025000C000E003600E6002C0026001200E0
:100160000F003700E7002800270013003300380095
:10017000E4004E0030002F003400E500E5000000F0
:100180000100010001000100010000003A0001002F
:1001900001004400010001003B0001005000450047
:1001A000010001003C005200510068000100010004
:1001B0003D0001004F006900010001003E00010008
:1001C00001006A00000001000100010000000100C0
:1001D0000000010001000100000001000000AC006F
:1001E0003F00010001006B000000AB004000010077
:1001F0004A006C000100A90041004B004E006D0058
:100200000100AE00420001004D006E000100A80098
:100210004300010001006F000100AA00010001007D
:1002200001000100010000000000000000000000CB
:100230002A2B280000000000000000000000000041
:1002400000000029000000002C1E3420212224344C
:100250002627252E362D3738271E1F20212223241E
:1002600025263333362E37381F0405060708090ABA
:100270000B0C0D0E0F101112131415161718191A56
:100280001B1C1D2F3130232D350405060708090AD4
:100290000B0C0D0E0F101112131415161718191A36
:1002A0001B1C1D2F3130354C0000000000000000E9
:1002B000000000000000000000000000000000003E
:1002C0000000000000000000000000007E0F00D4CD
:1002D000FFFFFFC7000000781603450072006700AB
:1002E0006F0044006F007800200045005A000000B5
:1002F00028035A00530041002000540065006300A9
:1003000068006E006F006C006F00670079002000CD
:100310004C0061006200730000000403090409023C
:100320005400030100A0FA090400000103010100C8
:100330000921110100012240000705810308000185
:100340000904010001030102000921110100012239
:1003500047000705820308000109040200010300A9
:100360000000092111010001226D0007058303200F
:1003700000011201000200000008973274490100D8
:100380000102000105010980A101850319012AB7B5
:1003900000150126B700950175108100C0050C09F4
:1003A00001A101850419012AA002150126A00295C8
:1003B0000175108100C005010906A1018506050728
:1003C00019E029E715002501950875018102050747
:1003D000190029EF1500250195F075018102050826
:1003E0001901290595057501910295017503910182
:1003F000C005010902A1010901A10005091901298E
:1004000008150025019508750181020501093009CB
:10041000311581257F9502750881060938158125DA
:100420007F950175088106050C0A38021581257F24
:10043000950175088106C0C005010906A1010507DF
:1004400019E029E71500250195087501810295013C
:10045000750881010507190029FF150026FF009581
:100460000675088100050819012905950575019192
:1004700002950175039101C011241FBECFEFDAE090
:10048000DEBFCDBF11E0A0E0B1E0E2E7F9E402C0D9
:1004900005900D92A039B107D9F722E0A0E9B1E0AB
:1004A00001C01D92AB3DB207E1F70E941E130C94F0
:1004B000A1240C9400008098889A8198899A849845
:1004C0008C9A85988D9A86988E9A87988F9A089597
:1004D000209828982198299822982A9823982B9830
:1004E00052985A9853985B983E9846980895CF939F
:1004F000C82F873078F58091060190910701892BEC
:1005000039F564E670E080E40E94C8189093070112
:1005100080930601892BD1F464E670E082E10E94A9
:1005200034199093070180930601892B79F481E0B7
:1005300090E001C0880FCA95EAF764E670E0809504
:100540000E94341990930701809306010E94851937
:10055000CF9108958A30B1F038F4883069F089304D
:1005600071F0209A2898F4CF8C3091F070F08D3093
:10057000C1F73E9A4698ECCF219A2998E9CF229A62
:100580002A98E6CF239A2B98E3CF529A5A98E0CF35
:10059000539A5B98DDCFCF93873050F58091060159
:1005A00090910701C0E0892B71F464E670E081E46A
:1005B0000E94C8189093070180930601892B31F09F
:1005C000C0E00E9485198C2FCF91089584E690E0B9
:1005D0000E94621997FF05C090930701809306015E
:1005E000EFCFC82FC0951092070110920601E9CFF6
:1005F000CFB18FB1869586958C73C3708C2BC82F25
:10060000C095E1CF0E940C0490E090930701809385
:1006100006010E9468020E945B020895EF92FF9219
:100620000F931F93CF93DF93809106019091070161
:10063000892B91F0809192018F5F809392018111BB
:100640000BC00E940C0490E0909307018093060178
:10065000892B11F40E949F030AEA12E0C0E0D0E067
:1006600087E0E82EEC0E8C2F0E9477028E2D0E94E0
:1006700077028C2F0E94CB028F73F80191918F012A
:10068000F12C891721F031978083FF24F3948E2D6C
:100690000E94CB028F73F8019681891779F08683C7
:1006A00081E08F29D82B0E946802CF5FC730C1F646
:1006B0008D2FCDB7DEB7E6E00C94152380E0F1CFA7
:1006C0000E940C0490E090930701809306010E9421
:1006D00068020E945B02E8EBF2E0119282E0E63CE5
:1006E000F807D9F70895259A2D9A0895269A2E9AF3
:1006F0000895279A2F9A089556985E9808952598F8
:100700002D98089526982E98089527982F98089543
:100710000E947C030E947F030E9482030E94850343
:10072000089590E0909389008093880090938B00C7
:1007300080938A0090938D0080938C0008950E948E
:1007400088038FEF0E9491030E9473032FEF80E7CD
:1007500092E0215080409040E1F700C000000E94EC
:1007600076032FEF80E792E0215080409040E1F740
:1007700000C000000E9479032FEF80E792E0215033
:1007800080409040E1F700C000000E947F032FEFFF
:1007900080E792E0215080409040E1F700C00000E7
:1007A0000E9482032FEF80E792E02150804090402A
:1007B000E1F700C000000E9485030E9488030895AD
:1007C00089EA8093800089E08093810024982C98A6
:1007D0003F988AB18F7C8AB96E98479A8BB18063B3
:1007E0008BB9769A0E94EB0E6093A4027093A502D7
:1007F0008093A6029093A70267702FEF629FC001BB
:10080000112495958795959587950E9491030E944F
:100810009F030E943F12089580E290E090930701A9
:10082000809306018091930181110EC00E94C2182D
:1008300081E0809393012FEF83ED90E3215080407E
:100840009040E1F700C0000064E670E080E40E94A0
:10085000C8189093070180930601892B09F04EC0B8
:1008600064E670E080E00E94341990930701809361
:100870000601892B09F042C064E670E080E00E9426
:1008800034199093070180930601892BB9F564E62A
:1008900070E08FE30E943419909307018093060162
:1008A000892B61F50E94851964E670E080E40E945E
:1008B000C8189093070180930601892BF9F464E628
:1008C00070E08CE00E943419909307018093060138
:1008D000892BA1F464E670E080E00E9434199093C3
:1008E000070180930601892B49F464E670E08FE3E9
:1008F0000E94341990930701809306010E94851984
:100900008091060108951092A4021092A5021092FF
:10091000A6021092A70284E080618093A4026091F5
:10092000A4027091A5028091A6029091A7020E9454
:10093000F00E0E94FE0E08950E94401208959C0140
:10094000FB018281882391F0223BFDE53F0721F0E6
:10095000233B3D4529F008950E94600F80E00895F3
:1009600060E08CEA90E00E947A17F8CF81E0089569
:1009700081E008950E949F04089508950E94BD0497
:100980000895A5E0B0E0E7ECF4E00C94FC22498384
:100990005A833091990189819A81311119C0662356
:1009A00099F0222389F00E94B00A182F682F8981BC
:1009B0009A810E948C0A69817A81812F0E94191183
:1009C0002596E3E00C9418230E949E0A182FF3CF7B
:1009D0000E94B00A69817A81F1CFFC01262F408103
:1009E00051816281738184810E94C104089581E0F4
:1009F0000895CF93DF93EC0160E00E94ED04BE0107
:100A00000E94BE04DF91CF9108950E94E0030895F3
:100A10000E949C04089508950E9457090E940B05A6
:100A20002FEF84E39CE0215080409040E1F700C02C
:100A3000000008950E940C050E94AC1B08950E94BE
:100A40000C050E94DE1B08950F931F93CF93DF9335
:100A50008C0161E00E94ED04EC01B8010E94BA042F
:100A6000811106C080E0DF91CF911F910F91089511
:100A7000B801CE010E9470188823A1F3B801CE01FD
:100A80000E94AF15882371F3B801CE010E94E217CE
:100A9000882341F3F8018281882361F0CB35FDE59D
:100AA000DF0701F158F4C115ECE5DE0791F0CF3D09
:100AB000DC4591F0C8010E94B804D5CFCD358DE555
:100AC000D80769F090F0C83ADD45A1F70E941F05EC
:100AD000C9CF0E941A05C6CF0E94600FF7CF0E94AF
:100AE000A80EE8CF0E94B20EE5CF0E94B60EE2CF6C
:100AF0000E94DF1A0E94950508950E9499050E94A0
:100B0000E31A089508950E948205089581E00895EA
:100B10000E94860508950895CF93C82F0E948305EB
:100B20008C2F0E948805CF91089580E00E948C054B
:100B300008950E9493190E948C050895CF930E94F6
:100B40009319C82F809194018C1779F0C093940168
:100B50000E946D1B6093950170939601809397019D
:100B6000909398018C2F0E948C05CF910895ABE053
:100B7000B0E0EDEBF5E00C94FD224F8358876987D8
:100B80007A878B8761110E94F30D1E821D8285E09A
:100B9000FE013796DE01119601900D928A95E1F7DC
:100BA0008C819D81892B61F449815A816B817C8183
:100BB0008D819E810E941C0D2B96E2E00C941923DE
:100BC00089819A8189238F3F79F3CE0101960E9412
:100BD000F7048111E9CFF0CFFC01808191810E945F
:100BE000E20A0895CF93C82F8823C9F08238C9F448
:100BF0000E94931981FD13C089E30E94AB0D0E94EE
:100C0000140E2FEF87EE93E0215080409040E1F7E3
:100C100000C0000089E30E94B30D0E94140ECF9122
:100C200008958338A1F40E94931980FDF8CF83E5DD
:100C30000E94AB0D0E94140E2FEF81EE94E0215024
:100C400080409040E1F700C0000083E5E4CF8438A5
:100C5000A1F40E94931982FDE2CF87E40E94AB0DBC
:100C60000E94140E2FEF81EE94E0215080409040BE
:100C7000E1F700C0000087E4CECF8CEF8C0F813A03
:100C800090F46C2F80910801909109010E94051A3F
:100C9000882329F08C2F0E94B30D0E94140E8C2FF4
:100CA0000E94AB0DBACF80E28C0F883048F4C77039
:100CB00081E001C0880FCA95EAF70E94D60DADCF3A
:100CC000EBE5EC0FE33040F4F0E0E45BFE4F8081B5
:100CD00090E00E94C519A3CFE8E5EC0FE73150F48E
:100CE000F0E0EE0FFF1FE25EFE4F808191810E94D7
:100CF000DB1995CFCD3E08F492CF8C2F0E94A21322
:100D00000E9475148CCF882309F455C0823879F479
:100D10000E94931981FF4FC089E30E94AB0D0E948E
:100D2000140E89E30E94B30D0E94140E08958338B7
:100D300059F40E94931980FF3EC083E50E94AB0DD9
:100D40000E94140E83E5EECF843859F40E94931963
:100D500082FF31C087E40E94AB0D0E94140E87E42D
:100D6000E1CF9CEF980F913AE8F290E2980F98301B
:100D700050F4877091E001C0990F8A95EAF7892FA6
:100D80000E94DC0DD1CF9BE5980F933028F490E0C2
:100D900080E00E94C519089598E5980F973128F4CE
:100DA00090E080E00E94DB1908958D3E20F00E94C3
:100DB000FC130E94751408951F93CF93DF93182F8F
:100DC000EB010E94F205209739F4812F0E948306DF
:100DD000DF91CF911F9108958FE99FE00197F1F77F
:100DE00000C000002197EFCF70E060E0893311F47C
:100DF00060E570E00E94DC060895882321F00E94DF
:100E0000D60D0E94140E0895882321F00E94DC0D57
:100E10000E94140E0895B0E0A0E0E1E1F7E00C9428
:100E2000F6226C01D62FC72FFC0112810581029595
:100E30000F700E94CC0DE82E8823B9F0E12E11230B
:100E4000A1F08C2F807F803421F080E28D0F8830DC
:100E5000C8F08091A90282FF15C082E00E94770E3F
:100E60000E94CC0D91E0E82EE926BC2EB2949FE0C2
:100E7000B922FBE0FB15B8F1EB2DF0E0ED55FB4D91
:100E80000C94E722E12CF1CF0C2F0F70C07F11F0F2
:100E90000295007F112399F0002359F080E28D0F15
:100EA000883010F0D11107C0802F0E94D60D0E940B
:100EB000140E8D2F5AC0802F0E94E60DF8CF8D2F73
:100EC0000E948306002379F080E28D0F883010F0B5
:100ED000D11104C0802F0E94DC0D03C0802F0E941E
:100EE000EC0D0E94140EEB2DE850FF0B349720F40C
:100EF0000E9493190E948C05EE2089F00E94C80D73
:100F000080FD0DC0F60112820E94C20D0E94EA0906
:100F1000C6010E9417090E94C20D0E94FA09CDB7AE
:100F2000DEB7E9E00C9412232C2F2F70F22EC07F35
:100F3000C03219F0F29480EFF822DD2341F0D13075
:100F4000E9F1112309F444C00023E9F1B2CF809103
:100F5000A90282FD15C0112359F0FF2029F08F2D21
:100F60000E94D60D0E94140E80E00E94F205BBCFB5
:100F700080E00E948306FF2009F4B5CF8F2DABCF10
:100F8000112381F0011106C00E94F60D8F290E94E5
:100F9000FD06A9CF0130C1F70E94F60D8F290E94EE
:100FA000FD0DA1CF011106C00E940A0E8F2D0E94D7
:100FB000040799CF013009F496CFF6CF112329F019
:100FC000023008F090CF8F2DE2CF01118CCFEECF01
:100FD000002361F3D93349F43FEF87EE93E03150BA
:100FE00080409040E1F700C000008D2F0E948306F2
:100FF0007ACF8C2F86958695837069F0813009F0C1
:1010000072CF8D2F9C2F9370111102C090E080E061
:101010000E94DB1968CF8D2F9C2F9370111102C095
:1010200090E080E00E94C5195ECF8D2F112329F03A
:101030000E94A2130E94751456CF0E94FC13FACF8F
:101040008C2F8370A1F511114ECF4D2F42954695EF
:101050004770440F440F2D2F2F7030E0042E02C034
:10106000220F331F0A94E2F790E080E0D4FF09C01A
:101070008FE090E002C0880F991F4A95E2F78095B3
:101080009095C695C695C370822B932BC23049F0BC
:1010900058F4C13019F00E94B80925CF0E94AF0959
:1010A00022CF0E94C1091FCF0E94AC091CCF869598
:1010B000112311F08C2F8170882309F414CF4D2F48
:1010C000429546954770440F440F2D2F2F7030E006
:1010D000042E02C0220F331F0A94E2F790E080E052
:1010E000D4FF09C08FE090E002C0880F991F4A9595
:1010F000E2F780959095C695C695C370822B932B89
:10110000C23049F058F4C13019F00E94250AEBCEE4
:101110000E941C0AE8CE0E942E0AE5CE0E94D00949
:10112000E2CECF70112329F08C2F0E94EA098D2F77
:101130002ECF8D2F0E9404078C2F0E94FA09D3CE48
:10114000D23F39F160F4D03FB9F0D13F81F01123A3
:1011500009F445C00111ADCE8C2F8F711EC0D33F55
:10116000F9F0D43FA1F78091A90282FD23C08C2F12
:101170008F71112311F311C0112339F00111B3CE76
:101180008C2F8F710E940C0AAECE023008F0ABCECD
:10119000F7CF8C2F8F711111D0CF0E94EA09A3CE07
:1011A000112329F08C2F8F710E94DE099CCE0E94A2
:1011B000D90999CE112349F0CF718C2F0E94EA09E9
:1011C00063E08C2F0E94590E8ECE81E00E94770E34
:1011D000023008F488CE82E00E94770E84CE00238D
:1011E00059F0D93309F001CFEFEFF7EE23E0E150EA
:1011F000F0402040E1F7F7CE8C2F8F719ECF0F93F8
:101200001F93CF93DF93EC01688179818A810E94DB
:10121000ED0A8C010E94370A0E94AB09B801CE0189
:101220000E940B07DF91CF911F910F910895CF93EB
:10123000DF93EC018B819C81892B29F08881998136
:1012400089238F3F51F4DF91CF910895CE010E9401
:10125000FF08CE010E94F904F6CFCE010E942405BA
:101260008111F4CF0E94CC0D882369F38A818823F1
:1012700051F38091A90282FFE6CF82E00E94770EAF
:10128000E2CF90E080E00E94C51990E080E00E94EB
:10129000DB190E94F30D0E94140E0E9491140E940B
:1012A000751408950E94BB0D0E94410908950E9483
:1012B000E30D0E945209089592959F70963091F027
:1012C00058F4925F9F70923058F4803F19F030F4D8
:1012D000883E30F481E008959A5FF4CF843FD1F3E3
:1012E00080E00895883EB0F3813FD1F7F3CFFC0151
:1012F00083819481892B29F08081918189238F3F7B
:1013000011F480E00895808191810E94E20A0E9498
:101310005C090895A5E0B0E0E0E9F9E00C94FD2255
:101320002596E2E00C941923A6E0B0E0EAE9F9E0A2
:101330000C94FD222696E2E00C94192308950E9455
:101340009E0908950E949F099093C9018093C80146
:101350000E944109089508950E94A20908952091CC
:10136000C8013091C901822B932B0E94A2090895D4
:101370002091C8013091C901822393230E94A209C0
:1013800008952091C8013091C901822793270E94B6
:10139000A20908950E949E0908950E94CA0908950D
:1013A0000E94CD099093C7018093C6010E94410914
:1013B000089590E080E00E94D009089521E030E097
:1013C000A90102C0440F551F8A95E2F7CA010E9485
:1013D000D009089521E030E002C0220F331F8A9522
:1013E000E2F78091C6019091C701822B932B0E9456
:1013F000D009089521E030E002C0220F331F8A9502
:10140000E2F7209530958091C6019091C701822323
:1014100093230E94D009089521E030E002C0220FFA
:10142000331F8A95E2F78091C6019091C701822708
:1014300093270E94D00908952091C6013091C701D9
:10144000822B932B0E94D00908952091C6013091E0
:10145000C701822393230E94D00908952091C601D9
:101460003091C701822793270E94D00908950895DB
:10147000262F277091E001C0990F2A95EAF723E003
:10148000769567952A95E1F7660F771F660F771FA8
:10149000FA01E60FF71F50E040E0682F70E08191FD
:1014A000DF0111979B01042E02C0369527950A94FF
:1014B000E2F7217021952827292328272C934F5FB5
:1014C0005F4F4430510559F70895A82FA77023E0C6
:1014D000969587952A95E1F7880F991F880F991F90
:1014E000FB01E80FF91F50E040E080E0219130E07F
:1014F0000A2E02C0369527950A94E2F72170332709
:10150000042E01C0220F0A94EAF7822B4F5F5F4F2F
:101510004430510559F70895262F9E3070F48630D7
:1015200060F4682F70E086E0989F600D711D1124B3
:101530004AE951E0822F0E94380A0895292F9E30EF
:1015400068F4863058F490E06AE971E036E0239F51
:10155000800D911D11240E94650A089580E0089570
:10156000B0E0A0E0E6EBFAE00C94F6227C010091FA
:10157000C6011091C7018091C8019091C901082B43
:10158000192BCFE0D0E0CC24C394D12CBC2EC601C3
:101590000C2E02C0880F991F0A94E2F78023912332
:1015A000892B49F4219790F7B12C8B2DCDB7DEB75D
:1015B000E9E00C941223B7018C2F0E94341101979B
:1015C00089F3F3CFCF93DF93EC010E94B00ABE0101
:1015D0000E943411DF91CF9108951F93CF93DF9331
:1015E000EB0190919901992339F0CB010E94E20A15
:1015F000DF91CF911F910895882369F0CB010E945C
:10160000B00A182F682FCE010E948C0ABE01812FCC
:101610000E943411EDCFCB010E949E0A182FF6CF05
:101620001F93CF93DF93C091CA0116E08091CB0145
:101630008C1304C0DF91CF911F910895D0E01C9FBF
:10164000F0011D9FF00D1124E453FE4F40815181A4
:1016500062817381848195810E9494092196C7706B
:10166000E5CF4091FC015091FD016091FE01709128
:10167000FF0180910002909101020E949409089557
:101680001F93CF93DF9380910102807F09F049C0BF
:101690008091FE01882309F444C08091CA01C09161
:1016A000CB016091FC017091FD01A091FF01B0910F
:1016B0000002D62FD72316E0C81799F190E01097B3
:1016C00011F0DF3F19F401968770F6CF189F900153
:1016D000199F300D1124F901E453FE4F4181471346
:1016E000F2CF40814613EFCF42814111ECCF4381CD
:1016F00054814A1B5B0B483C510528F7809101023D
:101700008F70806180930102F901EF52FE4F80815A
:101710008F70806180838CEF91E00E9417090E9496
:10172000100BDF91CF911F910895A1E1B0E0EBE99B
:10173000FBE00C94F5228C0185E0F801DE011D969A
:1017400001900D928A95E1F7F801E2808CEFC82EA6
:1017500081E0D82E6091FF01709100026115710542
:1017600009F44EC19091FC012091FD01892F822343
:101770008F3F09F445C140815181A380B480F0902E
:10178000FE01F501E61BF70BFF2009F4EAC080918A
:101790000102382F307FE83CF10508F0A3C0311179
:1017A0006DC0FE2C251316C0941314C0E11012C096
:1017B0008F708061809301020E94310BC6010E94EC
:1017C000170980910102F80185838F2D6196EAE067
:1017D0000C941123A114B10429F0842F85238F3F89
:1017E00009F027C180E0F82FF170DF2E80FF3CC0A8
:1017F0008091CA012091CB0136E0821315C04D873C
:101800005E878D859E850E94E20A292F22952F7082
:101810002230F0F0243018F59F70F1F0F801958136
:10182000907FD1F4D12C1EC090E0389FF001399FF9
:10183000F00D1124E453FE4F6181651306C06081F1
:10184000641303C06281E6120FC001968770D5CF82
:101850009F7011F0882331F3805E883018F3C8013F
:101860000E941709FD2CB1CFEE2009F4AECF809174
:101870000102816080930102F12CA7CF251306C0DD
:10188000941304C0F801EE2009F487C0C8010E9437
:101890007709882319F1EE2009F180910102803245
:1018A00070F02091FC013091FD0138872F8319865B
:1018B000BB86AA868C87CE0107960E94170986E010
:1018C000F801ACEFB1E001900D928A95E1F70E942A
:1018D000400B0E94310BFF24F39477CFC8010E9484
:1018E0001709F9CF311113C07A2DB98AA88A6E2D44
:1018F00089890E948A098CEF91E00E94170986E08D
:10190000F60111928A95E9F70E94310BB5CF2513A4
:101910000FC094130DC0E1100BC0F8018583C801FE
:101920000E94170986E0F60111928A95E9F74DCFDA
:10193000C8010E947709882389F2EE2079F280910C
:101940000102803208F4BBCF2091FC013091FD01EF
:101950003A8329831B82BD82AC828E83CE0101969D
:10196000ACCFE83CF10508F03EC0FE2CEE2009F4B7
:10197000B5CF25132AC0941328C08091010280FDA1
:101980001BC0982F907FC1F0F8018583903F31F004
:10199000982F907F905F8F70892B8583C8010E945C
:1019A000170986E0F801ACEFB1E001900D928A953D
:1019B000E1F70E94310B09CF86E0F801ACEFB1E00E
:1019C00001900D928A95E1F700CFC8010E94770936
:1019D000811175CF80910102816080930102C8015D
:1019E0000E941709F2CE7A2DB98AA88A6E2D8989AC
:1019F0000E948A0986E0F60111928A95E9F7D9CF0B
:101A0000EE2009F46BCFC8010E947709F82E8823D5
:101A100009F464CF86E0F801ACEFB1E001900D92DB
:101A20008A95E1F78CEF91E00E94EC050E94400B53
:101A3000C0CF81E08E25D7CEACE0B0E0E2E2FDE0A1
:101A40000C94FC224F83588769877A878B879C8701
:101A5000CE0107960E94950B882369F08A859B85A5
:101A6000892B39F04F815885842F85238F3F09F0CA
:101A70006BC016E05FC086E0FE013796DE0111966E
:101A800001900D928A95E1F78A859B85892B89F3D0
:101A90008F81988589238F3F61F32091CB0130E0BE
:101AA000C9010196877099274091CA014817190604
:101AB00071F40E9457091092CB011092CA0186E07E
:101AC000ECEFF1E0DF011D928A95E9F7D2CF96E0C5
:101AD000929FD001939FB00D1124A453BE4FFE01DD
:101AE000319601900D929A95E1F78093CB010E9477
:101AF000100BBFCF819FC001112484539E4F0E94C1
:101B0000950B8823E9F0E091CA011E9FF001112492
:101B1000E453FE4F408151816281738184819581BC
:101B20000E9494098091CA0190E0019687709927DC
:101B30008093CA018091CA019091CB018913DACFB9
:101B40002C96E3E00C94182369857A858B859C8517
:101B50000E9494098ECF682F80910801909109010D
:101B60000E94851A0895682F8091080190910901BB
:101B70000E94931A089580910801909109010E9492
:101B8000A11A0895809122028595859585950895DD
:101B9000809122028770089590912202977081E0CF
:101BA00009F480E0089580914502089590914502DE
:101BB000892B809345020895809590914502982342
:101BC0009093450208951092450208959091440221
:101BD000892B809344020895809590914402982324
:101BE0009093440208951092440208958091230234
:101BF000089508950E94F90D08959091A90292FF09
:101C000008C090912302981721F0809323020E942C
:101C1000FA0D089580912302882329F0109223025F
:101C200080E00E94FA0D0895CF93DF93E0910801C0
:101C3000F0910901809145028083E0910801F091C3
:101C40000901808190914402892B80839091230225
:101C5000992381F0E0910801F09109018081892B9D
:101C6000808380910801909109010E94F1198111EE
:101C70000E940A0EC0910801D091090140E250E093
:101C800062E072E0CE010E944C24892B59F080E280
:101C9000FE01A2E0B2E001900D928A95E1F7CE013B
:101CA0000E94A019DF91CF91089508950E94550ECA
:101CB00008959091A90292FF11C098E0899F900128
:101CC0001124622B609322020E94EA098091220271
:101CD0008595859585950E94560E08950E94EA097E
:101CE00008951092220280E00E94560E089590916D
:101CF00022028095892380932202282F277091F455
:101D0000282F082E000C330B9217130659F09091D0
:101D1000A90292FF07C08595859585950E94FA09CD
:101D20000E94710E08959091A90292FB222720F93A
:101D3000281769F080FB92F99093A9028091A8027C
:101D40009091A9020E94DD0E82E00E94770E089514
:101D50008091A90282FB882780F991E089270E945F
:101D6000930E089581E00E94930E089580E00E94F2
:101D7000930E089590E080E00E94672421E0883E61
:101D80009E4F09F020E0822F089582E090E00E94AB
:101D90005924089583E090E00E9459240895CF9338
:101DA00084E090E00E945924C82F82E290E00E94D3
:101DB0005924982F8C2FCF910895CF93C92F682F36
:101DC00084E090E00E946D246C2F82E290E00E94FB
:101DD0006D24CF9108958FE090E00E9461240895D2
:101DE000AB01BC018FE090E00E947F240895AB011D
:101DF000BC0183E190E00E947F24089560E070E0E0
:101E0000CB010E94F70E089568EE7EEF90E080E02F
:101E10000E948B2460E082E090E00E946D2460E0EC
:101E200083E090E00E946D241092C9011092C801D5
:101E300060E084E090E00E946D2464E082E290E043
:101E40000E946D2460E085E090E00E946D2460E0D7
:101E500086E090E00E946D246FEF87E090E00E94A2
:101E60006D2440E050E0BA0188E090E00E947F24B9
:101E700060E08DE090E00E946D2440E050E0BA0107
:101E800088E190E00E947F2460E087E190E00E947A
:101E90006D2440E050E0BA018CE190E00E947F2484
:101EA00070E060E080E290E00E948B2440E050E02F
:101EB000BA0188E190E00E947F240E948304089583
:101EC0000E94040F0895682F8EE090E00E946D2418
:101ED00008950E946D1B60935A0270935B02809379
:101EE0005C0290935D026093560270935702809358
:101EF0005802909359020895089508950E947D0F05
:101F0000089508950E94810F08958EE192E10E9444
:101F100089190E947C0F0E947E0F089581E0089528
:101F20000E948E0F0895089508950E94930F0E94B5
:101F3000940F08950E9421120E948B0508950E941B
:101F4000581B0E9448120E949A0F0E94820F089507
:101F5000AAE0B0E0EEEAFFE00C94F5220E945A12EB
:101F600088E4A82E82E0B82E750110E0F7010191F7
:101F70007F01812F0E9441121F5F1E3009F440C073
:101F80000817A1F380915E0281FD0E9447120E9412
:101F9000900FC82E10E0812F0E944112082FF501EA
:101FA00081915F01081731F1D02ED826F12CEE2453
:101FB000E3948D2D8E21B1F0CC20A1F0FE821F8301
:101FC00091E0802F8E2109F490E098870E94611B98
:101FD0008160782F9A8789874E815F8168858A859D
:101FE0000E94B705F394EE0CF6E0FF12E2CFF50184
:101FF000319700831F5F1E3071F60E94690F20C069
:102000000813C0CF0E94611B8C0180914602909101
:10201000470208171907A1F08FEF89838A831B8273
:102020000E94611B8160782F9D838C8349815A8136
:102030006B818D810E94B705109347020093460281
:102040000E94B3140E949E052A96EAE00C94112384
:10205000CF93DF930E943911EC01811521E592079E
:1020600008F042C0811530E5930708F09FC0883E14
:10207000910530F5803E910508F094C0883A9105AD
:1020800088F4853A910508F086C08130910509F4FD
:1020900089C0009709F486C0049708F083C0D0E097
:1020A000C0E080C08F3B9105D0F7C85AD0E0CC0F7C
:1020B000DD1FC15BDE4F0990D881C02DD46472C092
:1020C000811540E2940750F4C11581E0D80708F06B
:1020D00069C0CD3ED10518F3D06564C08115904428
:1020E000F0F2DF70D06A5EC0811535E5930718F510
:1020F000811544E5940708F085C0C11583E5D8072C
:1021000008F06CC0C11522E5D20708F462C0CE0108
:102110008370992721E030E002C0220F331F8A9597
:10212000E2F7C695C69580E2C89FE0011124C22B54
:10213000D32BDC6837C0811539E59307A8F48115E6
:1021400048E5940708F063C0C11586E5D80708F094
:10215000A6CF8C2F0E94DB11C82FD0E0DC2FCC271C
:10216000CC27DF71D0621EC081152AE5920708F4E2
:1021700053C090568115904208F091CF8D2F8F71EA
:102180000E94DB1190E0982F882788279F719C017F
:102190002C2BE901E7CFC55AD0E0C358DE4FC881E8
:1021A000D0E0D064CE01DF91CF910895837099275C
:1021B00021E030E002C0220F331F8A95E2F7C69576
:1021C000C69540E2C49FE0011124C22BD32BDD68E9
:1021D000E9CFDC2FCC27C16FD06AE4CFCE0183706A
:1021E000992721E030E002C0220F331F8A95E2F7E1
:1021F000C695C69540E2C49FE0011124C22BD32BA3
:10220000DA68D0CFD82FCC27C46FD06ACBCFD82FE5
:10221000CC27C06FD06AC6CF8F700E94DB1134E02C
:10222000D695C7953A95E1F7CF709C2FEC01D06910
:10223000B9CF972F7E30A8F4663098F470E026E08E
:10224000929F600D711D1124FB0194E5899FE00DA3
:10225000F11D1124EE0FFF1FE852FF4F859194915D
:10226000089580E090E008950E9419110E942810BE
:10227000089582389105B9F1B0F48133910509F4DC
:102280007DC048F48932910509F46DC08A32910508
:1022900009F47BC008958533910509F45FC0893343
:1022A000910509F10895833E9105D9F138F4803EF6
:1022B000910529F1823E910579F10895863E9105B7
:1022C000D9F1873E910509F43EC0843E910541F560
:1022D0002091A90221FF24C08091A80284FD19C089
:1022E00087EE90E008952091A802237009F05AC06B
:1022F0002091A90223FF14C089E290E00895209163
:10230000A80220FD38C03091A90230FF09C024FF87
:1023100043C090E080E008952091A80222FDF7CF0D
:1023200008952091A80222FD3AC03091A90230FD03
:1023300039C024FFF5CFEDCF2091A80223FFF0CFC5
:1023400024FDE7CFCDCF2091A80223FD2EC03091F0
:10235000A90231FFEECF84EE90E008952091A8020B
:1023600025FFDECFC9CF2091A80225FD21C02091F5
:10237000A90223FFD5CF89E390E0D2CF2091A80214
:1023800026FFCECF8AE290E008952091A80226FF92
:10239000C7CF81E390E0089583EE90E0089582EE48
:1023A00090E0089580EE90E0089586EE90E0089524
:1023B00085E390E008959091A80292FF06C0282F2F
:1023C00028712830F9F4877F846093FF06C0282F96
:1023D00028712831F1F4877E84612091A90220FFC1
:1023E00006C0382F38713830D9F4877F816021FFDB
:1023F00006C0282F28712831D1F4877E816194FD91
:10240000877E0895282F24712430F9F68B7F886009
:10241000DCCF282F2471243101F78B7E8861DDCF3A
:10242000382F3171313019F78E7F8860E0CF282F37
:102430002171213121F78E7E8861E1CF80E00895FE
:1024400008950E94BA0E811102C00E94600F0E947E
:10245000C50E80935E020E94CF0E9093A9028093D6
:10246000A8020E9420120E94CA0E90E00E94AC09AD
:102470008091C6019091C7010E94CD0908950895E9
:102480000895E82FF0E0E854FD4F80810895089505
:102490000E940203EAEAF2E0A8EBB2E011921D9278
:1024A00082E0E83BF807D1F78EE00E946D120E94AF
:1024B00005050895CF938AEA92E00E940E03282F23
:1024C0004EE068EB72E08AEA92E00E948012C82F28
:1024D0000E9408058C2FCF910895CF93C82F90E0CC
:1024E0000E9424238093630290936402282FFC01AE
:1024F0008E2F821B8C1710F0CF9108951192F8CF78
:10250000B0E0A0E0E6E8F2E10C94F822082FF92E02
:10251000E62ED72E142FC22F10925F02D0916002A8
:10252000DD2309F452C00E94611B209161023091A9
:102530006202AC01421B530B9A019093620280939A
:1025400061024F3F510509F0C8F4452B99F01092F4
:1025500060021092650240916302E42FF0916402E0
:1025600090E030E08E2F841B811758F0309360028A
:1025700090936502C11137C0CD2F29C02FEF30E0F5
:10258000E6CF8081882321F0281720F010829D2F2C
:102590003196E8CF821B80833D2FFACF8C91388112
:1025A000381779F0308131110CC0508388832C9119
:1025B0008227292F30E0282B91E0232B09F490E08B
:1025C00021E03196219611961CC0211106C0809100
:1025D00065028823F1F0C11106C00E94611B90932F
:1025E0006202809361024091630290915F022091A8
:1025F0006002CE2DDD2DA02FBF2DE42FF0916402BF
:102600005CE38E2F841B811748F290935F02209326
:10261000600280915F02CDB7DEB7E7E00C9414232F
:102620000E949B1D0E949F0F0E94A81D08950E945A
:10263000AD1D0E94A80F0E94C71D08950E94FA1A9E
:102640000E94811D0E94850F0E9410130E94171383
:102650000E94950FFBCF80916D0280FF0DC06091AD
:102660000F0170E0660F771F6038710570F5611516
:10267000710569F1862F089581FF07C060910F01F0
:1026800084E0689FB0011124EFCF60910F0182FDBB
:102690000AC080916C028823A9F020910E016091FC
:1026A0000F01821710F088E0ECCF869FC001112443
:1026B00033E0880F991F3A95E1F7622F70E00E948E
:1026C000D322D2CF68E070E0D5CF8FE7089581E0C4
:1026D000089580916D0280FF0CC060910B0170E045
:1026E00075956795759567956115710549F1862F03
:1026F000089581FF06C060910B0170E075956795A4
:10270000F3CF60910B0182FD0BC090916B02992376
:10271000A1F060910A0180910B01961738F0682FA3
:1027200070E06038710500F38FE70895899FC0015C
:10273000112470E00E94D322F4CF61E070E0D7CF83
:1027400081E008958D3E31F40E942B138195809392
:10275000700208958E3E19F40E942B13F8CF8F3E1D
:1027600031F40E942B13819580936F020895803F6E
:1027700019F40E942B13F8CF893F29F40E946913A2
:102780008093710208958A3F21F40E946913819514
:10279000F7CF8B3F31F40E946913819580937202C9
:1027A00008958C3F19F40E946913F8CF9FE0980FA9
:1027B000983070F4815F990B21E030E001C0220F66
:1027C0008A95EAF780916E02822B80936E020895BB
:1027D0008D3F31F480916D02816080936D02089588
:1027E0008E3F21F480916D028260F7CF8F3FB9F761
:1027F00080916D028460F1CF40916F028D3E59F45B
:102800008091700287FF0DC01092700241110BC0C1
:1028100010926C0208C08E3E81F4809170021816EE
:102820009CF3442381F08091710290917202892B74
:1028300009F05AC010926B0208958F3E49F447FF89
:10284000F0CF10926F02809170028111ECCFE0CF37
:10285000803F19F41416ACF3E4CF90917102893FD4
:1028600029F41916F4F610927102DBCF8A3F19F49D
:1028700097FFD7CFF8CF909172028B3F29F497FF43
:10288000D0CF10927202CDCF8C3F19F41916CCF331
:10289000C8CF9FE0980F983090F4815F990B21E0AA
:1028A00030E0B90102C0660F771F8A95E2F7CB01CD
:1028B000809590916E02892380936E02B2CF8D3FF6
:1028C00031F480916D028E7F80936D02AACF8E3F8E
:1028D00021F480916D028D7FF7CF8F3F09F0A1CF5A
:1028E00080916D028B7FF0CF08950E94611B9C0147
:1028F00090916F0280917002982B21F030936A02C0
:10290000209369029091710280917202982B21F0BC
:1029100030936802209367028EE692E00E94BA1913
:10292000089585E0EEE6F2E0DF011D928A95E9F771
:1029300010926C0210926B0210926D020895FC01CD
:10294000818181110EC0828181110BC0838181112F
:1029500008C091E08481811101C090E0892F8170CD
:10296000089581E0FCCFA5E0B0E0E9EBF4E10C9440
:10297000FC2285E0EEE6F2E0DE01119601900D9278
:102980008A95E1F710926F02109270021092710214
:10299000109272028A819B81892B89F08091690251
:1029A00090916A020E94791BAC0190916C0299236C
:1029B000C9F1809110018417150608F440C08C817C
:1029C0009D81892B91F080916702909168020E940D
:1029D000791BAC0190916B02992309F471C080912D
:1029E0000C018417150608F479C0BE016F5F7F4F94
:1029F0008EE692E00E94B31A811105C08EE692E045
:102A00000E949F1481110E94751485E0FE01319689
:102A1000AEE6B2E001900D928A95E1F72596E3E0EB
:102A20000C941823209166028AE0289F90011124BB
:102A30002417350720F69F5F90936C0202C09F3FDA
:102A4000D1F71A81112359F00E942B139FEF111611
:102A50000CF491E0899F802D112480936F021B81DB
:102A6000112359F00E942B139FEF11160CF491E0E3
:102A7000899F802D11248093700230916F0233233F
:102A800009F49DCF20917002222309F498CF45EBE1
:102A90003403C0011124992359F090936F0245EB40
:102AA000240390011124332339F03093700287CF2F
:102AB00081E080936F02F3CF81E0809370027FCF3B
:102AC00020910D018AE0289F9001112424173507D9
:102AD00008F08BCF9F5F90936B0202C09F3FD1F7AE
:102AE0001C81112359F00E9469139FEF11160CF4F9
:102AF00091E0899F802D1124809371021D81112303
:102B000059F00E9469139FEF11160CF491E0899F10
:102B1000802D11248093720230917102332309F4C5
:102B200064CF20917202222309F45FCF45EB340376
:102B3000C0011124992359F09093710245EB2403AD
:102B400090011124332339F0309372024ECF81E08B
:102B500080937102F3CF81E08093720246CFCF93CE
:102B6000DF93EC01FB018281882309F464C1C43046
:102B7000FDE5DF07E0F5CB3F9CE5D90730F49E018A
:102B800022503C4524313105D8F50E94CF0E909358
:102B9000A9028093A802C231ECE5DE0709F41FC147
:102BA00008F06EC0C9308CE5D80709F4F2C008F00F
:102BB0003FC0C530ECE5DE0709F4DBC058F5C33093
:102BC0008CE5D80709F4CDC008F0CFC08091A802E9
:102BD0008160C230DC4509F4AEC08091A8029091BA
:102BE000A9020E94DD0E0E94570980E009C0C63A82
:102BF000EDE5DE0751F238F4C2369DE5D90729F23A
:102C0000DF91CF9108959E012E5A3D452330310525
:102C1000B8F7BBCF8091A8028062C730FCE5DF0720
:102C200009F489C008F4B1C08091A802806483C00F
:102C3000CD309CE5D90709F4BAC070F48091A802A0
:102C40008E7FCB30FCE5DF0709F475C008F4A7C020
:102C50008091A8028D7F6FC0CF309CE5D90709F421
:102C6000B6C008F4A8C0C031FCE5DF0709F4B3C062
:102C7000C131DC4509F0B1CF8091A8028F7B5BC0E8
:102C8000C1159DE5D90709F4B4C098F5CB3FFCE523
:102C9000DF0709F472C0B8F4C4319CE5D90709F420
:102CA000B6C008F4A2C0C531DC4509F096CF8091CA
:102CB000A80282FB992790F921E0922790FB82F9E4
:102CC00090FB83F938C0CD3F8CE5D80709F477C075
:102CD00008F457C0CE3FECE5DE0709F474C08091DC
:102CE000A9028360CF3FDC4509F077CF8093A9022A
:102CF00074CFC2368DE5D80709F496C068F4C230A7
:102D0000EDE5DE0709F48CC008F477C0C330DD457B
:102D100009F063CF80E085C0CE3A9DE5D907E9F0A0
:102D200068F49091A802892F8E7F90FF8160C63A47
:102D3000DD4509F052CF8093A8024FCFCF3A8DE501
:102D4000D80789F1C03BDD4509F047CF9091A90232
:102D5000892F877F93FF8860C9CF8091A9028860FF
:102D6000C5CF8091A8028260E6CF8091A8028460DE
:102D7000E2CF8091A8028860DECF8091A9028160B5
:102D8000B5CF8091A9028260B1CF8091A802806105
:102D9000D2CF0E9457098091A8028068CCCF809141
:102DA000A8028C60C8CF8091A902877F9FCF8091B5
:102DB000A8028B7FC0CF8091A802877FBCCF809173
:102DC000A9028E7F93CF8091A9028D7F8FCF8091B2
:102DD000A8028F7EB0CF8091A8028F7DACCF0E94D9
:102DE00057098091A8028F77A6CF8091A802837F90
:102DF000A2CF8091A9028C7F79CF8091A902982FD0
:102E0000909591708E7F892B90FB81F96FCF0E94F6
:102E100057099091A802892F97FB87F980588BCF8B
:102E200081E00E94630FD9CE9091A802892F8F7EF6
:102E300094FF806180CF81E0E3CEB0E0A0E0E3E2E8
:102E4000F7E10C94F822E82FF0E0E85DFD4FD49014
:102E5000282F26952695269530E0F901E853FD4F59
:102E60000491877010E0082E02C0159507950A940A
:102E7000E2F701701127F901E854FD4FE490F12CBD
:102E8000082E02C0F594E7940A94E2F791E0E92253
:102E9000FF24F901E855FD4FC491D0E002C0D5955B
:102EA000C7958A95E2F7C170DD270115110519F064
:102EB00081EE0E94F205E114F10419F086EE0E9401
:102EC000F2058D2D0E94F406E114F10419F086EE4E
:102ED0000E9483060115110519F081EE0E948306F8
:102EE000CD2B19F08CE20E94F406CDB7DEB7E7E0F7
:102EF0000C941423EF92FF920F931F93CF93DF93C1
:102F00008C01F62E8AE0E82EF8018491882309F4DA
:102F100054C0813009F04DC0E8012196FE01849132
:102F2000813091F42196FE0184910E94F4068E0175
:102F30000F5F1F4F8F2D815038F3EFE9FFE031977E
:102F4000F1F700C00000F7CF823039F4E801229693
:102F5000FE0184910E94F205EACF833039F4E80142
:102F60002296FE0184910E948306E1CF8430F9F617
:102F7000E8012296FE01249190E080E0FE01319666
:102F80002053330B2A30310548F0019780F2EFE9E6
:102F9000FFE03197F1F700C00000F7CFE89EA001F5
:102FA000E99E500D1124C901840F951F2491EF0152
:102FB000E5CF0E941D17E801BACFCDB7DEB7E6E036
:102FC0000C941523CF93DF93EB0186319C4511F5CB
:102FD0000E94D30D9A81992399F08A7A91E009F49D
:102FE00090E090937302811109C089E20E94AB0DB9
:102FF0000E94140E80E0DF91CF91089585E3F6CF13
:1030000080917302811104C089E20E94B30DF0CF58
:1030100085E3FBCF81E0EFCF0F931F93CF93DF9337
:10302000C42FD22FFC0182818823C9F040937602FD
:103030000E94611B909375028093740280E28C0F52
:10304000883040F4C77081E001C0880FCA95EAF764
:103050000E94FD06DF91CF911F910F91089510916D
:103060007602141332C080917402909175020E940E
:10307000791B883C910548F5C0E2CD0F1D17B9F0CA
:1030800080E2810F883040F4177081E001C0880F22
:103090001A95EAF70E940407C83048F481E09D2F92
:1030A000977001C0880F9A95EAF70E94FD06802F5D
:1030B0000E94F406C83070F6D77081E001C0880F16
:1030C000DA95EAF70E940407C5CF80E28C0F8830BA
:1030D00008F6C77081E001C0880FCA95EAF7F2CF01
:1030E0000F939C01CB01243F4CE5340759F1A8F420
:1030F000293DFCE53F0701F12A3D4CE53407D1F1BC
:10310000283D3C4591F406E221EE41EE68ED7CE578
:103110000E940C1880E00F910895263FFCE53F07C0
:10312000E9F0B0F0273F3C45F9F0FC0182818823AB
:1031300039F110927602EFCF07E225EE45EE69ED08
:103140007CE5E6CF06E221EE40EE64EF7CE5E0CFE1
:1031500007E225EE44EE65EF7CE5DACF06E221EEEC
:1031600042EE66EF7CE5D4CF07E225EE46EE67EF50
:103170007CE5CECF08E221E045EE6AED7CE5C8CFE4
:1031800081E0C9CF1092B9008CE08093B800089517
:10319000B0E0A0E0EEECF8E10C94F422B82EEB01E4
:1031A0000E94611B6C01EE24E394F12CC431D10523
:1031B00060F025E0E22EF12CCF3FDC0731F0CE01AC
:1031C00064E170E00E94BF227B0184EAA82E94E8AB
:1031D000992E1092BC00A092BC000E94611B8C0131
:1031E0008091BC0087FF0DC08091B900887F883036
:1031F000F9F08091B900887F8031D1F00FEF1FEF97
:1032000008C0C8010E94791BE816F90648F70EEFBE
:103210001FEFCF3FDC07E9F2C6010E94791BC817F8
:10322000D907B8F6C801CDB7DEB7EBE00C94102390
:10323000B092BB009092BC000E94611B8C018091F7
:10324000BC0087FF0AC08091B900887F883111F0E7
:103250008034A1F610E000E0E5CFC8010E94791BA0
:10326000E816F90660F7D3CF0F931F93CF93DF9340
:10327000EB018093BB0084E88093BC000E94611B3B
:103280008C018091BC0087FF11C02091B900287F7C
:1032900081E090E0283211F490E080E091958195F2
:1032A0009109DF91CF911F910F910895CF3FDC07D6
:1032B00041F3C8010E94791BC817D90710F78EEF98
:1032C0009FEFEFCF0F931F93CF93DF93EC0184E831
:1032D0008093BC000E94611B8C018091BC0087FF21
:1032E00008C08091BB0090E0DF91CF911F910F91BA
:1032F0000895CF3FDC0789F3C8010E94791BC817E6
:10330000D90758F78EEF9FEFEFCF84E98093BC0089
:1033100008959093910180939001089590937C0279
:1033200080937B020895E0917B02F0917C023097BC
:1033300029F00190F081E02D0995089580E008952D
:10334000E0917B02F0917C02309799F020911D0171
:10335000222359F02091A80227FF07C0DC012C91FD
:1033600011962C93119726E02C930280F381E02D87
:1033700009950895E0917B02F0917C02309721F04D
:103380000480F581E02D099508952091790230910E
:103390007A022817390771F090937A0280937902A4
:1033A000E0917B02F0917C02309721F00680F7815A
:1033B000E02D099508952091770230917802281721
:1033C000390771F09093780280937702E0917B0245
:1033D000F0917C02309721F00084F185E02D099571
:1033E0000895FC01329680911D01882321F080917F
:1033F000A8029EE187FF96E080E0915008F40895CE
:1034000021912223D1F38F5FF8CF662301F1209120
:103410001D012223F1F02091A80227FF1AC0462F98
:103420004695469546954E3190F4677021E030E020
:1034300002C0220F331F6A95E2F7840F911DFC0131
:10344000828190E02823392381E0232B69F480E0F6
:103450000895FC01329608962191261721F0E8176D
:10346000F907D1F7F4CF81E008959C01FC01329671
:103470009FEF80E04191461751F09F3F19F44111B1
:1034800001C0982F8F5F8630A9F79F3F09F40895F8
:10349000290F311D97FD3A95F90162830895FC01CA
:1034A000329608962191261303C0DF0111971C92D2
:1034B000E817F907B9F70895E62FE695E695E6953A
:1034C000EE3168F4E80FF92FF11D677021E030E06C
:1034D00001C0220F6A95EAF78281822B82830895C8
:1034E000E62FE695E695E695EE3170F4E80FF92FB4
:1034F000F11D677021E030E001C0220F6A95EAF704
:103500002095828128232283089520911D01222362
:1035100039F02091A80227FF03C00E945C1A089589
:103520000E94351A089520911D01222339F020911F
:10353000A80227FF03C00E94701A08950E944F1A24
:103540000895FC01329680911D01882351F08091ED
:10355000A80287FF06C08EE1DF011D928A95E9F778
:10356000089586E0F9CF45E050E00E944C2421E028
:10357000892B09F420E0822F089508950E94BD1A36
:103580000895811106C081E080937D020E94BE1AD9
:10359000089582E0F9CF83E080937D020E94BE1AF5
:1035A00008950E94C11A089581E080937D020E94CF
:1035B000BE1A08950E94D41A0895089508950E948D
:1035C000DE1A089508950E94DD1A0895CF930E948F
:1035D00060030E945A120E94E21AC0E08C2F0E94DF
:1035E0004112811105C0CF5FCE30C1F7CF91089550
:1035F00081E0FCCF85B7806885BF85B7806885BFCF
:1036000008951F921FB61F9211248F939F93AF931B
:10361000BF9380917E02811113C08091C602909168
:10362000C702A091C802B091C9024196A11DB11D67
:103630008093C6029093C702A093C802B093C902B8
:10364000BF91AF919F918F911F901FBE1F901895B2
:103650008091CE02843031F10E94780510927E0272
:1036600088E190E020E40FB6F894A895809360007C
:103670000FBE2093600083B7817F846083BF83B7D0
:10368000816083BF7894889583B78E7F83BF0FB6A0
:10369000F894A895809160008861809360001092F2
:1036A00060000FBE08950E9457090E947D0508958D
:1036B00082E084BD93E095BD9AEF97BD80936E0044
:1036C00008952FB7F8948091C6029091C702A091F7
:1036D000C802B091C9022FBF08952FB7F894609126
:1036E000C6027091C7028091C8029091C9022FBF93
:1036F00008959C014FB7F8948091C6029091C7023B
:10370000A091C802B091C9024FBF821B930B0895CC
:1037100078941F921FB61F9211248F939F93AF939B
:10372000BF938091C6029091C702A091C802B09148
:10373000C9020196A11DB11D8093C6029093C702D4
:10374000A093C802B093C902BF91AF919F918F918E
:103750001F901FBE1F901895F89481E08093E000A1
:1037600080E28093D800E9ECF0E010828FE19EE4E3
:103770000197F1F700C000001DBA109268001CBC50
:1037800010BE1FBA10927A0010926E0010926F0055
:1037900010927100109272001082ECEBF0E0108237
:1037A00014B817B81AB81DB810BA108215B818B8DE
:1037B0001BB81EB811BA0C94003F089588E19AE036
:1037C0000FB6F894A895809360000FBE90936000A8
:1037D000FFCF8091A202089508959C0182E080931A
:1037E000E9009FEF8091E800915085FD06C085EDCE
:1037F0008A95F1F700009111F5CF8091E80085FFDF
:103800000CC050E040E065E070E0C9010E94381E45
:103810008091E8008E778093E8000895CF93DF933E
:10382000EC0180911D018823B1F18091A80287FFEE
:1038300032C060E283E08093E9008FEF9091E8006E
:10384000815095FD06C095ED9A95F1F70000811124
:10385000F5CF8091E80085FF1BC080911D0170E0CD
:1038600050E040E0811104C050E040E068E070E0CA
:10387000CE010E94381E8091E8008E778093E80088
:1038800080E2FE01A2E8B2E001900D928A95E1F794
:10389000DF91CF91089568E081E0CDCF80937F02E2
:1038A00070938102609380028091CE02843001F592
:1038B00083E08093E9008FEF9091E800815095FDBF
:1038C00006C095ED9A95F1F700008111F5CF809132
:1038D000E80085FF0DC050E040E063E070E08FE756
:1038E00092E00E94381E8091E8008E778093E80075
:1038F0000895BC0184E00E944E1C0895BC0183E041
:103900000E944E1C08958091CD02811109C00E9431
:10391000C81F0E9425208091E20084608093E2000D
:1039200008951092CD0208950E94D41A08956091CE
:10393000CA0281E0611101C080E00E94CB1A0895A3
:103940009091CE0281E0943009F080E06091CA024B
:103950000E94D11A089542E061EC81E00E94441F68
:1039600042E061EC82E00E94441F42E261EC83E0AD
:103970000E94441F9091CE0281E0943009F080E0D3
:103980006091CA020E94C11A08958091D0028330CA
:1039900009F463C030F48130E1F1823009F4A0C051
:1039A00008958A3009F48CC08B3009F471C08930D5
:1039B00009F052C08091CF02813209F04DC0809150
:1039C000D3029091D402009719F0029709F044C0F5
:1039D0008091E800877F8093E8008091E80082FF73
:1039E00037C09091F3008091F200029731F48091FA
:1039F000F100813011F0863021F48091F100809344
:103A0000A2028091E8008B778093E8000E94781FE3
:103A100023C08091CF02813AF9F48091E800877F3A
:103A20008093E8008091D3029091D402892B61F4B5
:103A300060E282E892E070E00E94871E8091E800D8
:103A40008B778093E800089560E090E080E0F3CF0A
:103A50008091CE028111C1CF08958091CF02813A29
:103A6000D9F78091D3029091D402892BA9F7809144
:103A7000E800877F8093E8008091E80080FFFCCF1A
:103A800080911D018093F1008091E8008E77BCCF7A
:103A90008091CF02813201F78091D3029091D402BC
:103AA000892BD1F68091E800877F8093E8000E94FF
:103AB000781F8091D10280931D010E9457090895BB
:103AC0008091CF02813241F68091E800877F809318
:103AD000E8000E94781F8091D2028093A30208958B
:103AE0008091CF02813A09F0B7CF8091E800877FBB
:103AF0008093E8008091E80080FFFCCF8091A302D2
:103B0000C1CF84B7877F84BF0FB6F894A895809102
:103B10006000886180936000109260000FBE80E8B2
:103B200090E00FB6F89480936100909361000FBE0F
:103B30000E94DA1A08950E94C81F0E942520E2EE12
:103B4000F0E080818460808378940E94A4220895AC
:103B500081E191E00E948E1908958091CE02853016
:103B600031F48091CE02853019F00E94531B0895E4
:103B70000E94281B8091CC02882399F30E94E61AA8
:103B8000882379F30E94221E0E945709EACF0895E4
:103B90000E94CB1D0895292F33272330310521F1B1
:103BA00068F42130310509F443C02230310509F4AD
:103BB00044C090E080E030E020E026C021323105B2
:103BC00051F122323105A9F76330710590F7FB01FD
:103BD000EE0FFF1FED57FE4F2081318160587E4F61
:103BE000FB01808190E010C099278130910581F020
:103BF000009729F00297E9F6E8EDF2E002C0EAE169
:103C0000F3E0849190E09F01FA01318320830895CD
:103C1000E0EFF2E0F6CF6330710558F6660F771FDC
:103C2000FB01E757FE4F2081318189E090E0ECCF26
:103C300082E190E022E733E0E7CF84E590E02EE1F7
:103C400033E0E2CF80E189BD82E189BD09B400FEA5
:103C5000FDCF8091D8008F7D8093D8008091E000C7
:103C600082608093E0008091E00081FDFCCF0895A8
:103C7000AF92BF92CF92DF92FF920F931F93CF9399
:103C8000DF936C01EB018A010E94971FF82E8111CE
:103C900023C00115110539F0F80180819181C81BFD
:103CA000D90BC80ED91EB12CA12C2097A9F0809158
:103CB000E80085FD22C08091E8008E778093E800BF
:103CC00001151105A1F0F80180819181A80EB91E9E
:103CD000B182A08285E0F82E8F2DDF91CF911F91C8
:103CE0000F91FF90DF90CF90BF90AF9008950E940A
:103CF000971F8823D1F2F82EEFCFF60181916F0143
:103D00008093F1002197FFEFAF1ABF0ACECFFC01DD
:103D10008091D5029091D60286179707A0F0611581
:103D2000710529F49091E8009E779093E80090E067
:103D30006115710551F4911108C08091E80082FF6E
:103D400034C080E00895BC01F2CF8091CE02882378
:103D5000C1F18530C1F18091E80083FD30C08091D0
:103D6000E80082FDEACF8091E80080FFE1CF8091FA
:103D7000F3002091F200382F6115710519F02830F9
:103D8000310558F091E02830310509F090E020919C
:103D9000E8002E772093E800CBCF81918093F1004B
:103DA000615071092F5F3F4FE7CF8091CE0288238A
:103DB00041F0853041F08091E80083FFBECF81E083
:103DC000089582E0089583E00895FC018091D50272
:103DD0009091D60286179707A0F06115710529F416
:103DE0008091E8008E778093E80090E0611571057E
:103DF00051F4911108C08091E80082FF35C080E045
:103E00000895BC01F2CF8091CE028823C9F185309C
:103E1000C9F18091E80083FD31C08091E80082FD06
:103E2000EACF8091E80080FFE1CF8091F3002091FC
:103E3000F200382F6115710519F02830310558F05E
:103E400091E02830310509F090E08091E8008E770C
:103E50008093E800CBCF84918093F100319661503C
:103E600071092F5F3F4FE6CF8091CE02882341F04A
:103E7000853041F08091E80083FFBDCF81E0089557
:103E800082E0089583E00895982F973028F08F708E
:103E90008093E90081E008959093E900242F762F24
:103EA00050E0981731F07091EC002091ED005091A6
:103EB000F00021FD02C09F5FE8CF3091EB003E7F14
:103EC0003093EB003091ED003D7F3093ED00309169
:103ED000EB0031603093EB007093EC002093ED0029
:103EE0005093F0002091EE0027FDE5CF80E008958B
:103EF0008091CF0287FF13C08091E80082FF06C047
:103F00008091E8008B778093E80004C08091CE0216
:103F10008111F2CF08958091CE028823D9F3809148
:103F2000E80080FFF8CF8091E8008E77ECCF2091F9
:103F3000E4003091E50095E6A9012091EC00822F84
:103F4000817020FF06C08091E80080FF06C080E0FD
:103F500008952091E80022FD1AC08091CE028823A6
:103F600089F0853089F08091EB0085FD0FC02091AC
:103F7000E4003091E50042175307F9F29150E1F661
:103F800084E0089582E0089583E0089581E0089533
:103F90000E9437200E943F20E0EEF0E080818160A7
:103FA0008083E8EDF0E080818F77808319BCA7EDF6
:103FB000B0E08C918E7F8C9380818F7E8083109275
:103FC000CD0208950F931F93CF93DF930E94372064
:103FD0000E943F20C8EDD0E088818F778883888158
:103FE0008068888388818F7D888319BC1092CE0277
:103FF0001092CA021092CC021092CB0200EE10E096
:10400000F80180818B7F808388818160888342E092
:1040100060E080E00E94441FE1EEF0E080818E7F4E
:104020008083E2EEF0E0808181608083808188601F
:104030008083F80180818E7F80838881806188837E
:10404000DF91CF911F910F910895E8EDF0E080810D
:104050008F7E8083E7EDF0E080818160808384E063
:1040600082BF81E08093CD020E94E21F0895E8EDB7
:10407000F0E080818E7F80831092E200089510929C
:10408000DA001092E10008951F920F920FB60F927E
:1040900011242F933F934F935F936F937F938F934D
:1040A0009F93AF93BF93EF93FF938091E10082FFC3
:1040B0000BC08091E20082FF07C08091E1008B7FFE
:1040C0008093E1000E94A3228091DA0080FF19C052
:1040D0008091D80080FF15C08091DA008E7F809398
:1040E000DA008091D90080FF96C080E189BD82E12D
:1040F00089BD09B400FEFDCF81E08093CE020E940D
:10410000831C8091E10080FF19C08091E20080FF54
:1041100015C08091E2008E7F8093E2008091E200E2
:1041200080618093E2008091D80080628093D80003
:1041300019BC85E08093CE020E94971C8091E1001B
:1041400084FF2BC08091E20084FF27C080E189BDFD
:1041500082E189BD89B5982F917080FFFBCF809156
:10416000D8008F7D8093D8008091E1008F7E80936E
:10417000E1008091E2008F7E8093E2008091E20076
:1041800081608093E2008091CA02882309F449C0CB
:1041900084E08093CE020E94A01C8091E10083FF06
:1041A00029C08091E20083FF25C08091E100877FD4
:1041B0008093E10082E08093CE021092CA02809147
:1041C000E1008E7F8093E1008091E2008E7F8093FA
:1041D000E2008091E20080618093E20042E060E0D2
:1041E00080E00E94441F8091F00088608093F0007E
:1041F0000E94941CFF91EF91BF91AF919F918F917D
:104200007F916F915F914F913F912F910F900FBED2
:104210000F901F90189519BC1092CE020E94911C0D
:1042200070CF8091E30087FD93E09093CE02B3CFEF
:104230001F920F920FB60F9211242F933F934F931B
:104240005F936F937F938F939F93AF93BF93CF931E
:10425000DF93EF93FF93D091E900DF708091EC0042
:10426000C82FC17080FDC0E81092E9008091F00075
:10427000877F8093F00078940E945C211092E9007F
:104280008091F00088608093F000CD2BCF70C093B8
:10429000E900FF91EF91DF91CF91BF91AF919F9195
:1042A0008F917F916F915F914F913F912F910F90DF
:1042B0000FBE0F901F901895AAE2B0E0E2E6F1E27F
:1042C0000C94FC228FEC92E02091F100FC012193F0
:1042D000CF01F2E0873D9F07B9F70E94C51C80918E
:1042E000E80083FF1EC18091CF029091D0029A30E6
:1042F00008F017C1E92FF0E0E155FB4D0C94E722DF
:10430000803899F0823809F00CC18091D3028F7007
:10431000873008F006C18093E9008091EB0085FBAF
:10432000882780F91092E90006C08091CB02909115
:10433000CC02911182609091E800977F9093E80001
:104340008093F1001092F1008091E8008E77E5C033
:10435000882309F4D3C0823009F0E3C08091D102F0
:104360008111D6C08091D3028F702FEF280F263095
:1043700008F0D7C08093E9002091EB0020FFC8C06F
:10438000933031F48091EB0080628093EB00C0C0E9
:104390009091EB0090619093EB0021E030E001C040
:1043A000220F8A95EAF72093EA001092EA008091A2
:1043B000EB008860EACF8111B4C01091D1021F7761
:1043C0008091E3008078812B8093E3008091E80066
:1043D000877F8093E8000E94781F8091E80080FF2B
:1043E000FCCF8091E30080688093E30082E01111AC
:1043F00083E08093CE0295C08058823008F091C04F
:104400008091D1029091D2028C3D23E09207A1F5D8
:1044100083E08A838AE289834FB7F894DE0113969A
:1044200020E03EE051E2E32FF0E050935700E491AA
:1044300020FF03C0E295EF703F5FEF708E2F90E09A
:10444000EA30C0F0C7968D939D932F5F243159F7C2
:104450004FBF8091E800877F8093E8006AE270E0B8
:10446000CE0101960E94871E8091E8008B77809391
:10447000E80057C0C096E7CF6091D3027091D40294
:10448000AE014F5F5F4F0E94C81DBC01892B09F42C
:1044900048C09091E800977F9093E80089819A81C5
:1044A0000E94E51EE1CF8038E1F58091E800877F2A
:1044B0008093E8008091CA028093F10045CF81117A
:1044C00030C09091D102923060F58091E800877FF2
:1044D0008093E8009093CA020E94781F8091CA02DC
:1044E000882311F084E005C08091E30087FDFACFB6
:1044F00081E08093CE020E94AB1C13C08091D10258
:10450000813079F481E0933009F080E08093CC022F
:104510001092E9008091E800877F8093E8000E9474
:10452000781F8091E80083FF0AC08091E800877FB0
:104530008093E8008091EB0080628093EB00AA9664
:10454000E3E00C9418230895CF938091CE02882342
:10455000A1F0C091E900CF709091EC00892F81709B
:1045600090FD80E8C82B1092E9008091E80083FD5F
:104570000E945C21CF70C093E900CF910895AA1BDF
:10458000BB1B51E107C0AA1FBB1FA617B70710F03E
:10459000A61BB70B881F991F5A95A9F78095909570
:1045A000BC01CD01089597FB072E16F4009407D0A7
:1045B00077FD09D00E94BF2207FC05D03EF49095FC
:1045C00081959F4F0895709561957F4F0895EE0FE7
:1045D000FF1F0590F491E02D09942F923F924F9286
:1045E0005F926F927F928F929F92AF92BF92CF9283
:1045F000DF92EF92FF920F931F93CF93DF93CDB78C
:10460000DEB7CA1BDB0B0FB6F894DEBF0FBECDBF03
:1046100009942A88398848885F846E847D848C84D4
:104620009B84AA84B984C884DF80EE80FD800C81DD
:104630001B81AA81B981CE0FD11D0FB6F894DEBFC0
:104640000FBECDBFED0108950F931F93CF93DF935E
:104650009C01029710F422E030E0E091D902F09141
:10466000DA0290E080E0B0E0A0E0309791F40097AB
:1046700009F445C0821B930B84309105B8F58A81FB
:104680009B816115710569F1FB0193838283FE01B2
:1046900011C0408151810281138142175307F0F00C
:1046A0004217530799F4109761F012960C931297E2
:1046B00013961C933296CF01DF91CF911F910F91EA
:1046C00008950093D9021093DA02F4CF009719F0FD
:1046D0004817590718F4CA01BD01EF01DF01F801BD
:1046E000C4CF9093DA028093D902D1CFFE01E80FB4
:1046F000F91F21933193029799838883DCCF8091AE
:10470000D7029091D802892B41F4809102019091B7
:1047100003019093D8028093D70280910001909179
:104720000101009741F48DB79EB74091040150916B
:104730000501841B950B4091D7025091D802481770
:10474000590708F0B8CF841B950B8217930708F41C
:10475000B2CFB9016E5F7F4F8617970708F4ABCFD2
:10476000640F751F7093D8026093D702FA012193EA
:104770003193A1CFCF93DF939C010097E9F0FC0127
:10478000329713821282C091D902D091DA02DE01EF
:1047900090E080E02097A1F480819181280F391F5B
:1047A0008091D7029091D8028217930709F067C0D1
:1047B000F093D802E093D702DF91CF910895DA0108
:1047C000AE17BF0708F041C012964D915C91139748
:1047D000CD014115510599F7DC011396FC93EE9339
:1047E00012974D915D91A40FB51FEA17FB0781F455
:1047F000208131812E5F3F4F240F351FDC01119640
:104800003C932E932281338113963C932E931297DF
:10481000B0E0A0E08A819B810097B1F5FE01819113
:104820009191E80FF91F8091D7029091D8028E17CD
:104830009F0711F6109759F51092DA021092D902DB
:10484000D093D802C093D702B7CFB383A28340815D
:104850005181240F351FA217B30771F44E5F5F4FCC
:104860002D913C911197420F531F51834083129613
:104870002D913C9133832283009709F0ADCFF093C3
:10488000DA02E093D90298CFDE01EC01C3CF139690
:104890001C921E921297D4CFFB01DC0104C08D91B3
:1048A0000190801921F441505040C8F7881B990BA2
:1048B0000895F999FECF92BD81BDF89A992780B5E8
:1048C0000895A6E1B0E044E050E00C949324A8E100
:1048D000B0E042E050E00C949324262FF999FECFEB
:1048E00092BD81BDF89A019700B4021639F01FBA43
:1048F00020BD0FB6F894FA9AF99A0FBE0895039660
:10490000272F0E946E240E946D24252F0E946E2462
:10491000242F0C946E240196272F0E946E240C9451
:104920006D24DC01CB01FC01F999FECF06C0F2BD7C
:10493000E1BDF89A319600B40D9241505040B8F75D
:104940000895F894FFCF4407440794079407F907A4
:1049500015087307730720089108A008A008802194
:10496000A8219122A8219122DB21FC21912253220E
:024970005F22C4
:104972000000DB022000200024023C0714283C0730
:1049820014E91B0E1CED1B7E1C791CEC1B01E200C2
:10499200E900EA00B500B600B700CD008301CC0003
:1049A2008A01920194012102230224022502260295
:1049B20027022A02B300B4006F007000818283E2F2
:1049C20000E900EA00B500B600B700CD008301CCD3
:1049D200008A019201940121022302240225022667
:1049E2000227022A02B300B4006F007000818283A2
:1049F20040476D3804F10384033003490362030026
:00000001FF
